{
  "contractName": "SimpleHotelReservation",
  "abi": [
    {
      "constant": true,
      "inputs": [
        {
          "name": "",
          "type": "uint256"
        }
      ],
      "name": "hotelReservationIds",
      "outputs": [
        {
          "name": "",
          "type": "bytes32"
        }
      ],
      "payable": false,
      "stateMutability": "view",
      "type": "function"
    },
    {
      "constant": false,
      "inputs": [],
      "name": "renounceOwnership",
      "outputs": [],
      "payable": false,
      "stateMutability": "nonpayable",
      "type": "function"
    },
    {
      "constant": true,
      "inputs": [],
      "name": "owner",
      "outputs": [
        {
          "name": "",
          "type": "address"
        }
      ],
      "payable": false,
      "stateMutability": "view",
      "type": "function"
    },
    {
      "constant": true,
      "inputs": [
        {
          "name": "",
          "type": "bytes32"
        }
      ],
      "name": "hotelReservations",
      "outputs": [
        {
          "name": "recipientAddress",
          "type": "address"
        },
        {
          "name": "reservationCostLOC",
          "type": "uint256"
        },
        {
          "name": "dateForWithdraw",
          "type": "uint256"
        }
      ],
      "payable": false,
      "stateMutability": "view",
      "type": "function"
    },
    {
      "constant": true,
      "inputs": [],
      "name": "LOCTokenContract",
      "outputs": [
        {
          "name": "",
          "type": "address"
        }
      ],
      "payable": false,
      "stateMutability": "view",
      "type": "function"
    },
    {
      "constant": true,
      "inputs": [],
      "name": "maxAllowedWithdrawCyclesCount",
      "outputs": [
        {
          "name": "",
          "type": "uint256"
        }
      ],
      "payable": false,
      "stateMutability": "view",
      "type": "function"
    },
    {
      "constant": false,
      "inputs": [
        {
          "name": "_newOwner",
          "type": "address"
        }
      ],
      "name": "transferOwnership",
      "outputs": [],
      "payable": false,
      "stateMutability": "nonpayable",
      "type": "function"
    },
    {
      "inputs": [
        {
          "name": "_locTokenContractAddress",
          "type": "address"
        },
        {
          "name": "_maxAllowedCyclesCount",
          "type": "uint256"
        }
      ],
      "payable": false,
      "stateMutability": "nonpayable",
      "type": "constructor"
    },
    {
      "anonymous": false,
      "inputs": [
        {
          "indexed": true,
          "name": "_hotelReservationId",
          "type": "bytes32"
        },
        {
          "indexed": true,
          "name": "_customerAddress",
          "type": "address"
        },
        {
          "indexed": true,
          "name": "_recipientAddress",
          "type": "address"
        },
        {
          "indexed": false,
          "name": "_reservationEndDate",
          "type": "uint256"
        },
        {
          "indexed": false,
          "name": "_reservationCostLOC",
          "type": "uint256"
        }
      ],
      "name": "LogCreateHotelReservation",
      "type": "event"
    },
    {
      "anonymous": false,
      "inputs": [
        {
          "indexed": false,
          "name": "withdrawedAmount",
          "type": "uint256"
        },
        {
          "indexed": true,
          "name": "withdrawerAddress",
          "type": "address"
        }
      ],
      "name": "LogWithdrawal",
      "type": "event"
    },
    {
      "anonymous": false,
      "inputs": [
        {
          "indexed": true,
          "name": "previousOwner",
          "type": "address"
        }
      ],
      "name": "OwnershipRenounced",
      "type": "event"
    },
    {
      "anonymous": false,
      "inputs": [
        {
          "indexed": true,
          "name": "previousOwner",
          "type": "address"
        },
        {
          "indexed": true,
          "name": "newOwner",
          "type": "address"
        }
      ],
      "name": "OwnershipTransferred",
      "type": "event"
    },
    {
      "constant": false,
      "inputs": [
        {
          "name": "locTokenContractAddress",
          "type": "address"
        }
      ],
      "name": "setLOCTokenContractAddress",
      "outputs": [],
      "payable": false,
      "stateMutability": "nonpayable",
      "type": "function"
    },
    {
      "constant": true,
      "inputs": [],
      "name": "getHotelReservationsCount",
      "outputs": [
        {
          "name": "_hotelReservationCount",
          "type": "uint256"
        }
      ],
      "payable": false,
      "stateMutability": "view",
      "type": "function"
    },
    {
      "constant": false,
      "inputs": [
        {
          "name": "_maxAllowedWithdrawCyclesCount",
          "type": "uint256"
        }
      ],
      "name": "setmaxAllowedWithdrawCyclesCount",
      "outputs": [],
      "payable": false,
      "stateMutability": "nonpayable",
      "type": "function"
    },
    {
      "constant": true,
      "inputs": [
        {
          "name": "_reservationIds",
          "type": "bytes32[]"
        }
      ],
      "name": "validateWithdraw",
      "outputs": [
        {
          "name": "success",
          "type": "bool"
        }
      ],
      "payable": false,
      "stateMutability": "view",
      "type": "function"
    },
    {
      "constant": false,
      "inputs": [
        {
          "name": "_hotelReservationId",
          "type": "bytes32"
        },
        {
          "name": "_reservationCostLOC",
          "type": "uint256"
        },
        {
          "name": "_dateForWithdraw",
          "type": "uint256"
        },
        {
          "name": "_recipientAddress",
          "type": "address"
        }
      ],
      "name": "createHotelReservation",
      "outputs": [
        {
          "name": "success",
          "type": "bool"
        }
      ],
      "payable": false,
      "stateMutability": "nonpayable",
      "type": "function"
    },
    {
      "constant": false,
      "inputs": [
        {
          "name": "_reservationIds",
          "type": "bytes32[]"
        }
      ],
      "name": "withdraw",
      "outputs": [
        {
          "name": "success",
          "type": "bool"
        }
      ],
      "payable": false,
      "stateMutability": "nonpayable",
      "type": "function"
    }
  ],
  "bytecode": "0x608060405234801561001057600080fd5b5060405160408061099883398101604052805160209091015160008054600160a060020a03338116600160a060020a0319928316179092556004805492909416911617909155600255610930806100686000396000f3006080604052600436106100c45763ffffffff7c010000000000000000000000000000000000000000000000000000000060003504166305e63abd81146100c957806350682650146100f3578063715018a61461015c5780638da5cb5b14610173578063928da137146101a45780639b9b7249146101e4578063b3feeac314610205578063c412599f1461021a578063e8d3d17b14610244578063edb87b361461025c578063f2fde38b14610271578063fd89fe6514610292578063fe2b3924146102a7575b600080fd5b3480156100d557600080fd5b506100e16004356102fc565b60408051918252519081900360200190f35b3480156100ff57600080fd5b50604080516020600480358082013583810280860185019096528085526101489536959394602494938501929182918501908490808284375094975061031b9650505050505050565b604080519115158252519081900360200190f35b34801561016857600080fd5b50610171610383565b005b34801561017f57600080fd5b506101886103f3565b60408051600160a060020a039092168252519081900360200190f35b3480156101b057600080fd5b506101bc600435610402565b60408051600160a060020a039094168452602084019290925282820152519081900360600190f35b3480156101f057600080fd5b50610171600160a060020a036004351661042d565b34801561021157600080fd5b50610188610477565b34801561022657600080fd5b50610148600435602435604435600160a060020a0360643516610486565b34801561025057600080fd5b5061017160043561061d565b34801561026857600080fd5b506100e161063d565b34801561027d57600080fd5b50610171600160a060020a0360043516610643565b34801561029e57600080fd5b506100e161066a565b3480156102b357600080fd5b5060408051602060048035808201358381028086018501909652808552610148953695939460249493850192918291850190849080828437509497506106709650505050505050565b600180548290811061030a57fe5b600091825260209091200154905081565b6000808260025481511115151561033157600080fd5b835160001061033f57600080fd5b600091505b83518210156103795761036d848381518110151561035e57fe5b90602001906020020151610828565b50600190910190610344565b5060019392505050565b60005433600160a060020a0390811691161461039e57600080fd5b60008054604051600160a060020a03909116917ff8df31144d9c2f0f6b59d69b8b98abd5459d07f2742c4df920b25aae33c6482091a26000805473ffffffffffffffffffffffffffffffffffffffff19169055565b600054600160a060020a031681565b600360205260009081526040902080546001820154600290920154600160a060020a03909116919083565b60005433600160a060020a0390811691161461044857600080fd5b6004805473ffffffffffffffffffffffffffffffffffffffff1916600160a060020a0392909216919091179055565b600454600160a060020a031681565b6000848152600360205260408120548590600160a060020a0316156104aa57600080fd5b600085116104b757600080fd5b60408051606081018252600160a060020a038581168252602080830189815283850189815260008c8152600384528681209551865473ffffffffffffffffffffffffffffffffffffffff191690861617865591516001860155516002909401939093556004805485517f23b872dd000000000000000000000000000000000000000000000000000000008152338516928101929092523084166024830152604482018b9052945194909216936323b872dd936064808501948390030190829087803b15801561058557600080fd5b505af1158015610599573d6000803e3d6000fd5b505050506040513d60208110156105af57600080fd5b505115156105b957fe5b82600160a060020a031633600160a060020a031687600019167f71e6d610032635ebc61a79fa8b6cf3d25d492d4f9b91eab3110ca328ae40964a8789604051808381526020018281526020019250505060405180910390a450600195945050505050565b60005433600160a060020a0390811691161461063857600080fd5b600255565b60025481565b60005433600160a060020a0390811691161461065e57600080fd5b61066781610874565b50565b60015490565b60008060008360025481511115151561068857600080fd5b845160001061069657600080fd5b600091505b8451821015610737576106b5858381518110151561035e57fe5b506106f56003600087858151811015156106cb57fe5b6020908102909101810151825281019190915260400160002060010154849063ffffffff6108f116565b9250600060036000878581518110151561070b57fe5b60209081029091018101518252810191909152604001600020600190810191909155919091019061069b565b60048054604080517fa9059cbb000000000000000000000000000000000000000000000000000000008152600160a060020a0333811694820194909452602481018790529051929091169163a9059cbb916044808201926020929091908290030181600087803b1580156107aa57600080fd5b505af11580156107be573d6000803e3d6000fd5b505050506040513d60208110156107d457600080fd5b505115156107de57fe5b604080518481529051600160a060020a033316917fef232fa02b2633bddc860db9d0d9b1c57fd83b506398b134edaebb6783d41e94919081900360200190a2506001949350505050565b60008181526003602052604081205433600160a060020a0390811691161461084f57600080fd5b600082815260036020526040902060020154421161086c57600080fd5b506001919050565b600160a060020a038116151561088957600080fd5b60008054604051600160a060020a03808516939216917f8be0079c531659141344cd1fd0a4f28419497f9722a3daafe3b4186f6b6457e091a36000805473ffffffffffffffffffffffffffffffffffffffff1916600160a060020a0392909216919091179055565b818101828110156108fe57fe5b929150505600a165627a7a723058201c5c24a742fcd17db8dc53415d1b595c7d92ee1eebe1e5e0f022f3ceabb9df2c0029",
  "source": "pragma solidity ^0.4.23;\nimport \"openzeppelin-solidity/contracts/ownership/Ownable.sol\";\nimport \"openzeppelin-solidity/contracts/token/ERC20/ERC20.sol\";\nimport 'openzeppelin-solidity/contracts/math/SafeMath.sol';\n\ncontract SimpleHotelReservation is Ownable {\n\tusing SafeMath for uint256;\n\n\tbytes32[] public hotelReservationIds;\n\tuint public maxAllowedWithdrawCyclesCount;\n\n\tstruct HotelReservationStruct {\n\t\taddress recipientAddress;\n\t\tuint256 reservationCostLOC;\n\t\tuint dateForWithdraw;\n\t}\n\n\tmapping (bytes32 => HotelReservationStruct) public hotelReservations;\n\tERC20 public LOCTokenContract;\n\n\tevent LogCreateHotelReservation(bytes32 indexed _hotelReservationId, address indexed _customerAddress, address indexed _recipientAddress, uint _reservationEndDate, uint _reservationCostLOC);\n\tevent LogWithdrawal(uint256 withdrawedAmount, address indexed withdrawerAddress);\n\n\tconstructor(address _locTokenContractAddress, uint _maxAllowedCyclesCount) public {\n\t\tLOCTokenContract = ERC20(_locTokenContractAddress);\n\t\tmaxAllowedWithdrawCyclesCount = _maxAllowedCyclesCount;\n\t}\n\n\tmodifier onlyNotExisting(bytes32 _hotelReservationId) {\n\t\trequire(hotelReservations[_hotelReservationId].recipientAddress == address(0));\n\t\t_;\n\t}\n\n\tmodifier validateCountCycle(bytes32[] hotelReservationsArray) {\n\t\trequire(hotelReservationsArray.length <= maxAllowedWithdrawCyclesCount);\n\t\t_;\n\t}\n\n\tfunction setLOCTokenContractAddress(address locTokenContractAddress) public onlyOwner {\n\t\tLOCTokenContract = ERC20(locTokenContractAddress);\n\t}\n\n\tfunction getHotelReservationsCount() public view returns(uint _hotelReservationCount) {\n\t\treturn hotelReservationIds.length;\n\t}\n\n\tfunction validateReservationForWithdraw(bytes32 _hotelReservationId) internal view returns(bool success) {\n\t\trequire(hotelReservations[_hotelReservationId].recipientAddress == msg.sender);\n\t\trequire(now > hotelReservations[_hotelReservationId].dateForWithdraw);\n\t\treturn true;\n\t}\n\n\tfunction setmaxAllowedWithdrawCyclesCount(uint _maxAllowedWithdrawCyclesCount) onlyOwner {\n\t\tmaxAllowedWithdrawCyclesCount = _maxAllowedWithdrawCyclesCount;\n\t}\n\n\tfunction validateWithdraw(bytes32[] _reservationIds) public validateCountCycle(_reservationIds) view returns(bool success) {\n\t\trequire(_reservationIds.length > 0);\n\n\t\tfor (uint i = 0 ; i < _reservationIds.length ; i++) {\n\t\t\tvalidateReservationForWithdraw(_reservationIds[i]);\t\n\t\t}\n\t\treturn true;\n\t}\n\n\tfunction createHotelReservation(\n\t\tbytes32 _hotelReservationId,\n\t\tuint256 _reservationCostLOC,\n\t\tuint _dateForWithdraw,\n\t\taddress _recipientAddress\n\t) public onlyNotExisting(_hotelReservationId) returns(bool success) {\n\t\trequire(_reservationCostLOC > 0);\n\n\t\t// hotelReservationIds.push(_hotelReservationId);\n\t\thotelReservations[_hotelReservationId] = HotelReservationStruct({\n\t\t\trecipientAddress: _recipientAddress,\n\t\t\treservationCostLOC: _reservationCostLOC,\n\t\t\tdateForWithdraw: _dateForWithdraw     \n\t\t});\n\n\t\tassert(LOCTokenContract.transferFrom(msg.sender, this, _reservationCostLOC));\n\n\t\temit LogCreateHotelReservation(_hotelReservationId, msg.sender, _recipientAddress, _dateForWithdraw, _reservationCostLOC);\n\t\treturn true;\n\t}\n\n\tfunction withdraw(bytes32[] _reservationIds) public validateCountCycle(_reservationIds) returns(bool success) {\n\t\trequire(_reservationIds.length > 0);\n\t\tuint256 withdrawAmount;\n\n\t\tfor (uint i = 0 ; i < _reservationIds.length ; i++) {\n\t\t\tvalidateReservationForWithdraw(_reservationIds[i]);\n\t\t\t\n\t\t\twithdrawAmount = withdrawAmount.add(hotelReservations[_reservationIds[i]].reservationCostLOC);\n\t\t\thotelReservations[_reservationIds[i]].reservationCostLOC = 0;\n\t\t}\n\t\tassert(LOCTokenContract.transfer(msg.sender, withdrawAmount));\n\t\temit LogWithdrawal(withdrawAmount, msg.sender);\n\t\treturn true;\n\t}\n}\t",
  "sourcePath": "/Users/martingrigorov/Work/Projects/LockChain/DApp/contracts/HotelReservation/SimpleHotelReservation.sol",
  "compiler": {
    "name": "solc",
    "version": "0.4.23+commit.124ca40d.Emscripten.clang"
  },
  "schemaVersion": "2.0.0",
  "updatedAt": "2018-06-15T13:08:52.139Z"
}